:1000000012C019C018C017C016C015C014C013C044
:1000100012C011C010C00FC00EC00DC00CC00BC06C
:100020000AC009C008C011241FBECFE5D4E0DEBF5E
:10003000CDBF02D023C0E4CF8EE187BB8DE489B968
:1000400010BC549A80B5866880BD44E130E124E05C
:100050009AE08CB1863611F448BBFBCF823611F49E
:1000600098BBF7CF823711F428BBF3CF8C3611F44D
:1000700038BBEFCF833769F718BAEBCFF894FFCFCF
:00000001FF
